:020000040800F2
:1000000088080020591F00082D1500082F1500082A
:1000100033150008371500083B15000800000000E4
:100020000000000000000000000000003F15000874
:1000300041150008000000004315000845150008A0
:10004000731F0008731F0008731F0008731F000848
:10005000731F0008731F0008731F0008731F000838
:10006000731F0008731F0008731F0008731F000828
:10007000731F0008731F0008731F0008731F000818
:10008000731F0008731F0008731F0008731F000808
:10009000731F0008731F0008731F0008731F0008F8
:1000A000731F0008731F0008731F0008731F0008E8
:1000B000731F0008731F0008731F0008731F0008D8
:1000C000731F0008731F0008731F0008731F0008C8
:1000D000731F0008FB1D0008DF170008731F0008CE
:1000E000731F0008731F0008731F0008731F0008A8
:1000F000731F0008731F0008731F0008731F000898
:10010000731F0008731F0008731F0008731F000887
:10011000731F0008731F0008731F0008731F000877
:10012000731F0008731F0008731F0008731F000867
:1001300000F002F800F049F80AA090E8000C8244B0
:100140008344AAF10107DA4501D100F03EF8AFF28D
:10015000090EBAE80F0013F0010F18BFFB1A43F0A5
:1001600001031847206F0000406F0000103A24BFC1
:1001700078C878C1FAD8520724BF30C830C144BF0C
:1001800004680C607047000000230024002500264E
:10019000103A28BF78C1FBD8520728BF30C148BFEA
:1001A0000B607047662906F0D085002070471FB5A8
:1001B00003F0C1FC03F020FF04000020002105F043
:1001C0006DFDE0601FBD10B510BD04F035F811469F
:1001D000FFF7EDFF00F0FAF804F053F803B4FFF76F
:1001E000F2FF03BC01F0AEFD0B49D1F800C04A6834
:1001F0005CF8043B1068184442F8040B8C4528BF97
:10020000A1F1DC0C8A4228BFA1F1DC02C1F800C0D8
:100210004A6020F0004070472002002008B501210C
:10022000082002F0D5F94FF44040ADF8000010204E
:100230008DF8030003208DF802006946FE4801F0A6
:100240000BFF4FF44041FC4801F0B5FF01210420B1
:1002500002F0BEF9C120ADF8000018208DF80300AF
:1002600003208DF802006946F44801F0F5FEC12133
:10027000F24801F0A0FF08BD10B588B00446012186
:10028000084602F0B2F942F20F70ADF818008F2064
:10029000ADF814000020ADF81A00ADF8160005A95D
:1002A0004FF0804002F03EFD6020ADF804000120D8
:1002B000ADF806000020ADF80C00ADF80A4001A929
:1002C0004FF0804002F06BFD0821C80603F0B6F93C
:1002D0000121880703F082F90121880703F08AF8D9
:1002E0000121880703F07AF808B010BD10B588B076
:1002F00004460121022002F078F942F20F70ADF8B5
:1003000018008F20ADF814000020ADF81A00ADF8E9
:10031000160005A9CA4802F005FD6020ADF80400EA
:100320000120ADF806000020ADF80C00ADF80A4041
:1003300001A9C34802F033FD0821C14803F07EF94A
:100340000121BF4803F04AF90121BD4803F052F8EA
:100350000121BB4803F042F808B010BD10B588B0C9
:1003600004460121022002F040F942F20F70ADF87C
:1003700018008F20ADF814000020ADF81A00ADF879
:10038000160005A9AE4802F0CDFC6020ADF80400CF
:100390000120ADF806000020ADF80C00ADF80A40D1
:1003A00001A9A74802F03DFD0821A54803F04FF937
:1003B0000121A34803F012F90121A14803F01AF822
:1003C00001219F4803F00AF808B010BDF2B00020E8
:1003D000709000BF00BF00216D916C9100BF00BF05
:1003E00000BF00BF00BF00BF00BF182148A803F036
:1003F000ABFB182142A803F0A7FB18213CA803F08F
:10040000A3FB0021389139913A913B913491359178
:1004100036913791309131913291339118212AA838
:1004200003F092FB182124A803F08EFB18211EA8CC
:1004300003F08AFB00BF00BF00BF00BF00BF00BFCA
:1004400000BF00BF00BF00BF00BF05216F916E91CC
:100450007C487D49559154904FF4A06002F020FBF8
:1004600001F010FD4FF4E13001F07BFC4FF4E1307E
:1004700001F05AF9FFF7D2FE4FF4FA6001F03FFDA8
:100480000020724908607249086001F04BB80021F1
:1004900070486891699000206F49679166900904DF
:1004A0006E48006806F0DCFA04D200BF00BF0021ED
:1004B0006C9112E000BF6C9801280ED0FFF794FEFB
:1004C000642190FBF1F201FB12016D9101216C910D
:1004D0006D98462800DA00E000BF5D48006806F02D
:1004E0000DFA5F4A5F4BCDE91C0105F0BBFE06D259
:1004F00000205D49699168905C4967916690544815
:10050000006806F0FBF9564A594BCDE91C0105F08D
:10051000E3FF06D2002057496991689056496791D8
:100520006690052001F0EBFC0020709047480168C0
:10053000524806F00FFA52491C9006F00BFA1D9033
:1005400006F0DCF96B916A90414801684C4806F06E
:1005500001FA1D9006F0D2F9659164903F48006859
:1005600006F0CCF9474A484BCDE91A0105F0B6FE32
:10057000444A464BCDE91C0105F0D8FB5F915E90E3
:1005800000204349599158902AA97098401C01EBCA
:10059000C00003C802460B46CDE9160100204FF00B
:1005A000804105F09BFECDE91A016F9805F02FFE02
:1005B000CDE910012AA9709801EBC00103C9CDE96A
:1005C0000E01DDE9102305F089FECDE91201559BEE
:1005D000549A05F083FECDE916016F9805F017FED9
:1005E000CDE90C012AA97098401C01EBC00103C998
:1005F000CDE90A01DDE90C2305F070FECDE90E011D
:10060000559B549A05F06AFECDE912016F9805F0EA
:10061000FEFDCDE904016F9805F0F9FD00221D4BA8
:10062000CDE9000105F05AFECDE90201DDE9042320
:1006300005F054FE30E00000000C014000080140CD
:1006400000040040FCA9F1D24D62503F2800002078
:100650002C00002000E06540004075403000002084
:100660009A9999999999B9BF00405A4000B0784039
:100670009999B93F00206C4000D071400080BA4386
:10068000000096421F85EB51B81E0940B81E294054
:100690000000F03F0000D03FCDE90601559B549A81
:1006A00005F01CFECDE90801559B549A05F016FE95
:1006B000CDE90A012AA9709801EBC00103C9CDE96F
:1006C0000801DDE90A2305F009FECDE90E016F9866
:1006D00005F09DFDCDE904016F9805F098FD00221D
:1006E000FE4BCDE9000105F0F9FDCDE90201DDE9A0
:1006F000042305F0F3FDCDE90601559B549A05F05E
:10070000EDFDCDE90801559B549A05F0E7FDCDE9D3
:100710000A016B9B6A9A05F0E1FDCDE90C01DDE968
:100720000E2306F001F8CDE91001DDE9122305F0F2
:10073000FBFFCDE91401DDE9162305F0F7FACDE959
:100740001801DDE91A2305F0F1FACDE91C012AA907
:10075000709801EBC00103C9CDE91A01DDE91C2342
:1007600005F0F0FE2AAB709A921C03EBC20203C2A2
:1007700048A97098401C01EBC00003C802460B4614
:10078000CDE9160100204FF0804105F0A7FDCDE92D
:100790001A016F9805F03BFDCDE9100148A970984A
:1007A00001EBC00003C8CDE90E01DDE9102305F01F
:1007B00095FDCDE91201559B549A05F08FFDCDE9C9
:1007C00016016F9805F023FDCDE90C0148A970983A
:1007D000401C01EBC00003C8CDE90A01DDE90C2390
:1007E00005F07CFDCDE90E01559B549A05F076FD90
:1007F000CDE912016E9805F00AFDCDE904016F986C
:1008000005F005FD0022B54BCDE9000105F066FDC0
:10081000CDE90201DDE9042305F060FDCDE9060123
:10082000559B549A05F05AFDCDE90801559B549A01
:1008300005F054FDCDE90A0148A9709801EBC0010B
:1008400003C9CDE90801DDE90A2305F047FDCDE93B
:100850000E016E9805F0DBFCCDE904016F9805F000
:10086000D6FC00229D4BCDE9000105F037FDCDE916
:100870000201DDE9042305F031FDCDE90601559BB8
:10088000549A05F02BFDCDE90801559B549A05F0CB
:1008900025FDCDE90A01659B649A05F01FFDCDE9B0
:1008A0000C01DDE90E2305F03FFFCDE91001DDE984
:1008B000122305F039FFCDE91401DDE9162305F017
:1008C00035FACDE91801DDE91A2305F02FFACDE953
:1008D0001C0148A9709801EBC00103C9CDE91A01B8
:1008E000DDE91C2305F02EFE48AB709A921C03EB49
:1008F000C20203C238A9709801EBC00003C8CDE959
:100900000E0105F055F9CDE9120100207449599BFB
:10091000589A05F0E3FCCDE90E01589A1046599B10
:10092000194605F0DBFC00226E4BCDE90A0105F00B
:10093000FBFECDE90C01DDE90E2305F0B3FACDE9AC
:100940001001DDE9122305F0C9FCCDE916010020F4
:100950006349599B589A05F0C1FCCDE9120100206A
:100960006049599B589A05F0E1F9CDE90E01002044
:100970005C49599B589A05F0D9F9CDE90C01DDE99C
:100980000E2305F0ABFCCDE91001DDE9122305F0E3
:1009900089FACDE91401DDE9162305F0C5FECDE99C
:1009A0001A015F9B5E9A5599549805F097FCCDE922
:1009B0001801DDE91A2305F091FCCDE91C0138A9E5
:1009C000709801EBC00003C8CDE91A01DDE91C23D2
:1009D00005F0ACF938AB709A521C03EBC20203C2AB
:1009E00038A9709801EBC00103C9CDE9180104F0E2
:1009F000A5FBCDE91A0148A9709801EBC00103C914
:100A0000CDE91801DDE91A2305F068FCCDE91C01E8
:100A10002AA9709801EBC00103C9CDE91A01DDE9EB
:100A20001C2305F083F9539152902AA97098401C19
:100A300001EBC0002AAB06C8709803EBC00006C0EB
:100A40002AA97098801C01EBC000D0E900217098A1
:100A5000401C03EBC000C0E9002148A97098401C6D
:100A600001EBC00048AB06C8709803EBC00006C09D
:100A700048A97098801C01EBC00006C87098401C03
:100A800003EBC00006C038A97098401C01EBC00001
:100A900038AB06C8709803EBC00006C0659B649A2B
:100AA0005399529805F042F900220F4BCDE91801F5
:100AB00005F03CF9CDE91A0105F07CFB80B21D90F0
:100AC000FFF7DAFB002070900021084862916390E4
:100AD000074808495D915C9007480FE00000D03F4F
:100AE000000010400000F03F000059400040554019
:100AF0001F85EB51B81E29402C00002001684FF0E3
:100B00007E5005F027FF1D9005F0F8FE5791569096
:100B100024A97098401C01EBC00003C802460B4694
:100B2000CDE9160100204FF0804105F0D7FBCDE95B
:100B30001A016F9805F06BFBCDE9100124A970989C
:100B400001EBC00103C9CDE90E01DDE9102305F079
:100B5000C5FBCDE91201559B549A05F0BFFBCDE9C9
:100B600016016F9805F053FBCDE90C0124A970988C
:100B7000401C01EBC00003C8CDE90A01DDE90C23EC
:100B800005F0ACFBCDE90E01559B549A05F0A6FB90
:100B9000CDE912016F9805F03AFBCDE904016F9899
:100BA00005F035FB0022FE4BCDE9000105F096FB78
:100BB000CDE90201DDE9042305F090FBCDE9060152
:100BC000559B549A05F08AFBCDE90801559B549A30
:100BD00005F084FBCDE90A0124A9709801EBC0005F
:100BE00003C8CDE90801DDE90A2305F077FBCDE96B
:100BF0000E016F9805F00BFBCDE904016F9805F02D
:100C000006FB0022E64BCDE9000105F067FBCDE9CC
:100C10000201DDE9042305F061FBCDE90601559BE6
:100C2000549A05F05BFBCDE90801559B549A05F0F9
:100C300055FBCDE90A01699B689A05F04FFBCDE9A8
:100C40000C01DDE90E2305F06FFDCDE91001DDE9B2
:100C5000122305F069FDCDE91401DDE9162305F045
:100C600065F8CDE91801DDE91A2305F05FF8CDE953
:100C70001C0124A9709801EBC00003C8CDE91A013A
:100C8000DDE91C2305F05EFC24AB709A921C03EB9B
:100C9000C20203C242A97098401C01EBC00103C903
:100CA00002460B46CDE9160100204FF0804105F0C9
:100CB00015FBCDE91A016F9805F0A9FACDE91001ED
:100CC00042A9709801EBC00103C9CDE90E01DDE92D
:100CD000102305F003FBCDE91201559B549A05F052
:100CE000FDFACDE916016F9805F091FACDE90C01F6
:100CF00042A97098401C01EBC00103C9CDE90A016B
:100D0000DDE90C2305F0EAFACDE90E01559B549A72
:100D100005F0E4FACDE912016E9805F078FACDE914
:100D200004016F9805F073FA00229D4BCDE9000194
:100D300005F0D4FACDE90201DDE9042305F0CEFA8D
:100D4000CDE90601559B549A05F0C8FACDE9080192
:100D5000559B549A05F0C2FACDE90A0142A9709850
:100D600001EBC00003C8CDE90801DDE90A2305F065
:100D7000B5FACDE90E016E9805F049FACDE9040106
:100D80006F9805F044FA0022854BCDE9000105F08B
:100D9000A5FACDE90201DDE9042305F09FFACDE9CA
:100DA0000601559B549A05F099FACDE90801559B27
:100DB000549A05F093FACDE90A01639B629A05F013
:100DC0008DFACDE90C01DDE90E2305F0ADFCCDE98E
:100DD0001001DDE9122305F0A7FCCDE91401DDE9DE
:100DE000162304F0A3FFCDE91801DDE91A2304F06E
:100DF0009DFFCDE91C0142A9709801EBC00003C81A
:100E0000CDE91A01DDE91C2305F09CFB42AB709A89
:100E1000921C03EBC20203C234A9709801EBC0001C
:100E200003C8CDE90E0104F0C3FECDE91201002094
:100E30005C49579B569A05F051FACDE90E01569A36
:100E40001046579B194605F049FA0022564BCDE94A
:100E50000A0105F069FCCDE90C01DDE90E2305F07E
:100E600021F8CDE91001DDE9122305F037FACDE9CB
:100E7000160100204B49579B569A05F02FFACDE9F1
:100E8000120100204849579B569A04F04FFFCDE9C4
:100E90000E0100204449579B569A04F047FFCDE9C4
:100EA0000C01DDE90E2305F019FACDE91001DDE9A9
:100EB000122304F0F7FFCDE91401DDE9162305F054
:100EC00033FCCDE91A015D9B5C9A5599549805F065
:100ED00005FACDE91801DDE91A2305F0FFF9CDE99E
:100EE0001C0134A9709801EBC00003C8CDE91A01B8
:100EF000DDE91C2304F01AFF34AB709A521C03EB9B
:100F0000C20203C234A9709801EBC00103C9CDE944
:100F1000180104F013F9CDE91A0142A9709801EB08
:100F2000C00103C9CDE91801DDE91A2305F0D6F99E
:100F3000CDE91C0124A9709801EBC00003C8CDE9DC
:100F40001A01DDE91C2304F0F1FE5191509034A9FF
:100F5000709801EBC00103C9CDE91C0104F0EEF863
:100F600024AA7098401C02EBC00024AB06C87098FD
:100F700003EBC00006C024A97098801C01EBC000E0
:100F800006C87098401C03EBC00006C042A97098C8
:100F9000401C01EBC00042AB06C8709806E00000A0
:100FA0000000D03F000010400000F03F03EBC00005
:100FB00006C042A97098801C01EBC000D0E9002156
:100FC0007098401C03EBC000C0E9002134A9709860
:100FD000401C01EBC00034AB06C8709803EBC000A6
:100FE00006C0639B629A5199509804F09FFE0022BC
:100FF000FE4BCDE9180104F099FECDE91A0105F088
:10100000D9F880B21D90FFF771F90021709100228C
:10101000F74B619360925D995C985B915A901EA921
:101020007098401C01EBC00103C902460B46CDE994
:10103000160100204FF0804105F050F9CDE91A016A
:101040006F9805F0E4F8CDE910011EA9709801EB46
:10105000C00003C8CDE90E01DDE9102305F03EF91B
:10106000CDE91201559B549A05F038F9CDE91601E6
:101070006F9805F0CCF8CDE90C011EA97098401CC2
:1010800001EBC00003C8CDE90A01DDE90C2305F03E
:1010900025F9CDE90E01559B549A05F01FF9CDE9CC
:1010A00012016F9805F0B3F8CDE904016F9805F0CF
:1010B000AEF80022CF4BCDE9000105F00FF9CDE9E4
:1010C0000201DDE9042305F009F9CDE90601559B8C
:1010D000549A05F003F9CDE90801559B549A05F09F
:1010E000FDF8CDE90A011EA9709801EBC00103C902
:1010F000CDE90801DDE90A2305F0F0F8CDE90E019C
:101100006F9805F084F8CDE904016F9805F07FF839
:101110000022B84BCDE9000105F0E0F8CDE902016D
:10112000DDE9042305F0DAF8CDE90601559B549A70
:1011300005F0D4F8CDE90801559B549A05F0CEF896
:10114000CDE90A01679B669A05F0C8F8CDE90C0164
:10115000DDE90E2305F0E8FACDE91001DDE91223FF
:1011600005F0E2FACDE91401DDE9162304F0DEFD15
:10117000CDE91801DDE91A2304F0D8FDCDE91C0101
:101180001EA9709801EBC00003C8CDE91A01DDE982
:101190001C2305F0D7F91EAB709A921C03EBC20218
:1011A00003C23CA97098401C01EBC00003C8024672
:1011B0000B46CDE9160100204FF0804105F08EF876
:1011C000CDE91A016F9805F022F8CDE910013CA98C
:1011D000709801EBC00003C8CDE90E01DDE91023D2
:1011E00005F07CF8CDE91201559B549A05F076F88C
:1011F000CDE916016F9805F00AF8CDE90C013CA97C
:101200007098401C01EBC00103C9CDE90A01DDE97A
:101210000C2305F063F8CDE90E01559B549A05F0B7
:101220005DF8CDE912016E9804F0F1FFCDE90401FB
:101230006F9804F0ECFF00226E4BCDE9000105F041
:101240004DF8CDE90201DDE9042305F047F8CDE9C9
:101250000601559B549A05F041F8CDE90801559BCC
:10126000549A05F03BF8CDE90A013CA9709801EBCE
:10127000C00003C8CDE90801DDE90A2305F02EF816
:10128000CDE90E016E9804F0C2FFCDE904016F981C
:1012900004F0BDFF0022574BCDE9000105F01EF818
:1012A000CDE90201DDE9042305F018F8CDE90601D6
:1012B000559B549A05F012F8CDE90801559B549AB4
:1012C00005F00CF8CDE90A01619B609A05F006F87B
:1012D000CDE90C01DDE90E2305F026FACDE9100178
:1012E000DDE9122305F020FACDE91401DDE916232A
:1012F00004F01CFDCDE91801DDE91A2304F016FD08
:10130000CDE91C013CA9709801EBC00103C9CDE9EE
:101310001A01DDE91C2305F015F93CAB709A921C0B
:1013200003EBC20203C230A9709801EBC00003C8EE
:10133000CDE90E0104F03CFCCDE9120100202E495C
:10134000579B569A04F0CAFFCDE90E01569A1046F3
:10135000579B194604F0C2FF0022284BCDE90A0131
:1013600005F0E2F9CDE90C01DDE90E2304F09AFD68
:10137000CDE91001DDE9122304F0B0FFCDE916013B
:1013800000201D49579B569A04F0A8FFCDE9120191
:1013900000201A49579B569A04F0C8FCCDE90E016B
:1013A00000201649579B569A04F0C0FCCDE90C0169
:1013B000DDE90E2304F092FFCDE91001DDE91223EF
:1013C00004F070FDCDE91401DDE9162305F0ACF958
:1013D000CDE91A015B9B5A9A5599549804F07EFF07
:1013E000CDE91801DDE91A230AE0000000004940B8
:1013F000004055400000D03F000010400000F03F8A
:1014000004F06CFFCDE91C0130A9709801EBC0011C
:1014100003C9CDE91A01DDE91C2304F087FC30ABD8
:10142000709A521C03EBC20203C230A9709801EB00
:10143000C00103C9CDE91C0103F080FE30AA7098F9
:1014400002EBC00003C8CDE9180103F077FE81F07C
:101450000041CDE91A013CA9709801EBC00103C914
:10146000CDE91801DDE91A2304F038FFCDE91C01AC
:101470001EA9709801EBC00103C9CDE91A01DDE98D
:101480001C2304F053FC4F914E901EA97098401CF1
:1014900001EBC0001EABD0E90021709803EBC00047
:1014A000C0E900211EA97098801C01EBC00006C88D
:1014B0007098401C03EBC00006C03CA97098401C0B
:1014C00001EBC0003CAB06C8709803EBC00006C03F
:1014D0003CA97098801C01EBC00006C87098401CA5
:1014E00003EBC00006C030A97098401C01EBC0009F
:1014F00030AB06C8709803EBC00006C0619B609AD1
:101500004F994E9804F012FC0022074BCDE91801C8
:1015100004F00CFCCDE91A0104F04CFE80B21D90E1
:10152000FEF71CFFFEF7B3BF00004940704700BF45
:10153000FEE700BFFEE700BFFEE700BFFEE7704723
:1015400070477047704700000CB500200190009074
:101550006C48006840F480306A49086000BF694800
:10156000006800F4003000900198401C0190009841
:1015700018B90198B0F5A06FF1D16248006800F485
:10158000003010B10120009001E000200090009890
:10159000012843D15C48006840F010005A490860B7
:1015A0000846006820F0030008600846006840F024
:1015B0000200086053484068524948600846406845
:1015C00048600846406840F48060486008464068CB
:1015D00020F47C1048600846406840F4E8104860F9
:1015E0000846006840F08070086000BF4548006809
:1015F00000F000700028F9D04248406820F0030055
:10160000404948600846406840F00200486000BF1A
:101610003C48406800F00C000828F9D10CBD10B51A
:10162000FFF792FF10BD10B53648006840F001008A
:1016300034490860084640683449084031494860E8
:1016400008460068324908402E490860084600688C
:1016500020F4802008600846406820F4FE004860BE
:101660004FF41F008860FFF7DAFF4FF00060294950
:10167000086010BD10B5002100200022214B5B68DE
:1016800003F00C0121B1042906D0082928D107E074
:10169000214B224C236027E01F4B204C236023E08A
:1016A000184B5B6803F47010164B5B6803F48032D0
:1016B000022303EB904022B9194B4343174C23609C
:1016C0000DE0104B5B6803F4003323B1144B43432C
:1016D000124C236003E0104B4343104C236003E0A3
:1016E0000D4B0E4C236000BF00BF064B5B68C3F37D
:1016F00003130C4CE15C094B1B68CB40074C236087
:1017000010BD000000100240002002400000FFF861
:10171000FFFFF6FE08ED00E000127A000000002056
:1017200000093D000400002010B586B004460121E8
:10173000042000F04DFF0121480400F056FF042072
:10174000ADF8140018208DF8170003208DF816004E
:1017500005A9FD4800F080FC0820ADF81400042025
:101760008DF8170005A9F84800F076FC01940020D8
:10177000ADF80800ADF80A00ADF80C00ADF81000A7
:101780000C20ADF80E0001A9F04800F0C8FF0022BF
:1017900040F22771ED4801F05AF8012240F225513C
:1017A000EA4801F054F84021E84801F02CF9012101
:1017B000E64801F040F84FF4E06001F071F92620AE
:1017C0008DF8000000208DF8010001208DF8020046
:1017D0008DF80300684601F068F906B010BD2DE9E8
:1017E000F04786B040F22551D84801F015F900289D
:1017F0007ED0D64801F090F800F0FF0ABAF1610FF0
:1018000005D0BAF1620F02D0BAF1630F05D1012001
:10181000CF4908600020CF490860BAF12D0F03D1ED
:101820004FF0FF30CC490860C9480068012806D154
:10183000BAF12E0F03D1C7480068C8490860C448F0
:101840000068012813D1BAF1300F10DBBAF1390F5B
:101850000DDCAAF1300005F0EBF8C149BD4A126871
:1018600041F82200BB480068401CBA490860BAF140
:10187000410F7DD10020BB490860B84800680028AE
:1018800040D00020B849086036E0B4490968B64A3B
:101890001268891A481E04F0BAFC02460B46CDE9CC
:1018A00000010020B14903F097FC80468946AC490D
:1018B000AD4A126851F8220005F020F8064642466B
:1018C0004B4604F00BFD04460D46A648006805F0A3
:1018D00015F822462B46CDE9020104F027FACDE99E
:1018E000040104F0F1F99F4908609F48006800E096
:1018F00000E2401C9C4908609B48006895490968C3
:101900008842C2DB9548006898BB00209649086071
:1019100036E090490968944A1268891A481E04F012
:1019200076FC804642460B460020904903F054FC6A
:1019300004460D468A498C4A126851F8220004F088
:10194000DDFF064622462B4604F0C8FCCDE9020125
:101950008448006804F0D2FFCDE90001DDE90223EC
:1019600004F0E4F9CDE9040104F0AEF97D4901E0A9
:101970002DE00BE008607C480068401C7A49086054
:1019800079480068734909688842C2DB7248006878
:1019900005F04EF8044673480168204605F094F8B7
:1019A000704908600846006804F0A8FF0446224613
:1019B0000B466FA001F0F0FF002065490860654903
:1019C0000860012064490860002064490860BAF199
:1019D000420F7DD100206949086060480068E8B383
:1019E00000206149086033E05C4909685E4A12687A
:1019F000891A481E04F00BFC804642460B46002024
:101A00005A4903F0E9FBCDE900015549564A1268ED
:101A100051F8220004F072FF0646DDE9002304F0CD
:101A20005DFC04460D465548006804F067FF2246F9
:101A30002B46CDE9020104F079F9CDE9040104F067
:101A400043F94E49086048480068401C4649086010
:101A5000454800683F490968884200E000E0C3DB70
:101A60003E480068A8BB00203F49086037E039497C
:101A700009683D4A1268891A481E04F0C8FB0646E8
:101A800032460B460020394903F0A6FB04460D46BA
:101A90003349354A126851F8220004F02FFF2246DC
:101AA0002B46CDE9000104F019FC804689463348F5
:101AB000006804F023FF42464B46CDE9020104F0E2
:101AC00035F9CDE9040104F0FFF82C49086001E084
:101AD0002CE00AE024480068401C234908602248A2
:101AE00000681C4909688842C1DB1B48006804F093
:101AF0009FFF044621480168204604F0E5FF1F4986
:101B000008600846006804F0F9FE044622460B46C9
:101B10001BA001F041FF00200D4908600D4908603D
:101B200001200D49086000200C490860BAF1430FFC
:101B300070D10020154908600848006818B10020DD
:101B40000949086059E05EE0000801400044004097
:101B50001400002018000020200000202400002095
:101B600054000020280000201C0000200000244019
:101B700061203D203A2531660D0A00002C0000202E
:101B800062203D203A2531660D0A00003000002019
:101B900060490968604A1268891A481E04F037FBD8
:101BA00002460B46CDE9000100205C4903F014FB1E
:101BB000804689465A49584A126851F8220004F072
:101BC0009DFE42464B46CDE9020104F087FB0446E8
:101BD0000D465448006804F091FE064622462B4606
:101BE00004F0A4F8CDE9040104F06EF84D49086052
:101BF00049480068401C48490860474800684A490D
:101C000009688842C4DB43480068E8BB00204249B9
:101C1000086034E05CE0444909683F4A1268891A68
:101C2000481E04F0F4FA064632460B4600203B49B3
:101C300003F0D2FACDE900013949374A126851F868
:101C4000220004F05BFE0446DDE9002304F046FBBD
:101C5000804689463348006804F050FE42464B46B1
:101C6000CDE9020104F062F8CDE9040104F02CF89A
:101C70002C49086028480068401C2749086026480D
:101C800000682949096800E001E08842C3DB274871
:101C9000006804F0CDFE044622480168204604F0A6
:101CA00013FF204908600846006804F027FE044638
:101CB00022460B461EA001F06FFE00201F4908605F
:101CC000194908600120194908600020114908607D
:101CD00020211B4800F097FE40F22551184800F0E3
:101CE000C5FE4FF45871164800F0C0FE0821144894
:101CF00000F089FE06B0BDE8F08710B5044600BFCD
:101D000020210F4800F072FE0028F9D00C4800F0A6
:101D100003FE10BD240000201C0000200000244011
:101D20005400002030000020180000202000002077
:101D300063203D203A2531660D0A00001400002082
:101D400000440040014600BF704700BF494A128866
:101D500002F04002002AF9D0C2B2464B1B1D1A8085
:101D6000704710B586B00446012144F2040000F02B
:101D70002FFC4FF40070ADF8140003208DF816000E
:101D800018208DF8170005A93B4800F065F94FF4BD
:101D90008060ADF8140004208DF8170005A93648BE
:101DA00000F05AF925208DF8000003208DF801007D
:101DB0008DF8020001208DF80300684600F075FEE2
:101DC00001940020ADF80800ADF80A00ADF80C0051
:101DD000ADF810000C20ADF80E0001A9254800F068
:101DE0009EFC012240F22551224800F030FD0121E5
:101DF000204800F020FD06B010BD10B540F225517E
:101E00001C4800F009FE10B31A4800F085FDC4B26A
:101E10001A48008800F40040C8B91848008800F447
:101E2000804060B10A2C03D000201449088020E0D3
:101E30001248008840F400401049088019E00D2C39
:101E400006D10E48008840F480400C49088010E01C
:101E50000A480088C0F30D0009490C54074800885F
:101E6000401C0649088008460088C72801DD00207C
:101E7000088010BD003801400008014038000020F3
:101E80007C00002010B56FF0040000F058FE2E48D2
:101E900000682E49B0FBF1F02D4908700846007823
:101EA00000EB4001C1EBC0104FF6FF7101EAC0002A
:101EB0002849088010BD0146254A12784A434FF050
:101EC000E0235A6100229A611A46126942F0010227
:101ED0001A6100BF4FF0E022106900F001021AB150
:101EE00000F48032002AF5D04FF0E022126922F08F
:101EF00001024FF0E0231A6100229A617047014607
:101F0000144A12884A434FF0E0235A6100229A6132
:101F10001A46126942F001021A6100BF4FF0E02236
:101F2000106900F001021AB100F48032002AF5D0E5
:101F30004FF0E022126922F001024FF0E0231A6113
:101F400000229A61704700000000002000127A0011
:101F50003A0000203C00002009488047094800471B
:101F6000FEE7FEE7FEE7FEE7FEE7FEE7FEE7FEE749
:101F7000FEE7FEE704480549054A064B70470000A6
:101F80002716000831010008880200208808002078
:101F9000880400208804002010B50446CC48844200
:101FA00008D10121042000F02DFB0021042000F0C5
:101FB00029FB46E0C748844208D10121082000F0EF
:101FC00021FB0021082000F01DFB3AE0C2488442BA
:101FD00008D10121102000F015FB0021102000F095
:101FE00011FB2EE0BD48844208D10121202000F0E1
:101FF00009FB0021202000F005FB22E0B8488442C4
:1020000008D10121402000F0FDFA0021402000F01D
:10201000F9FA16E0B348844208D10121802000F08B
:10202000F1FA0021802000F0EDFA0AE0AE48844287
:1020300007D10121801500F0E5FA0021A01500F07C
:10204000E1FA10BD10B50121084600F0DBFA0021CD
:10205000012000F0D7FA10BD2DE9F041024600251D
:102060000026002000230024002791F803C00CF074
:102070000F0591F803C00CF0100CBCF1000F03D059
:1020800091F802C04CEA050591F800C0BCF1000FC0
:1020900031D0146800202BE04FF0010C0CFA00F353
:1020A000B1F800C00CEA03069E4220D183004FF035
:1020B0000F0C0CFA03F7BC4305FA03FC4CEA0404CA
:1020C00091F803C0BCF1280F06D14FF0010C0CFAB7
:1020D00000FCC2F814C00AE091F803C0BCF1480F3C
:1020E00005D14FF0010C0CFA00FCC2F810C0401CE6
:1020F0000828D1D31460B1F800C0BCF1FF0F34DD63
:10210000546800202EE000F1080C4FF0010808FA96
:102110000CF3B1F800C00CEA03069E4221D1830003
:102120004FF00F0C0CFA03F7BC4305FA03FC4CEA22
:10213000040491F803C0BCF1280F05D100F1080C8C
:1021400008FA0CF8C2F8148091F803C0BCF1480FEB
:1021500007D100F1080C4FF0010808FA0CF8C2F89A
:102160001080401C0828CED35460BDE8F0814FF6A3
:10217000FF710180022181700421C1707047024605
:10218000002093680B400BB1012000E00020704755
:102190000146886880B2704702460020D3680B4031
:1021A0000BB1012000E0002070470146C86880B2F2
:1021B000704701617047416170470AB1016100E0F9
:1021C00041617047C16070474FF480320A438261B9
:1021D0008161826182698269704702460020434BB7
:1021E00018684FF68073184040EA021008433F4BCE
:1021F000186070473E49C8617047F0B50A46002331
:1022000000240021002500F00046B6F1004F02D165
:10221000364EF16901E0354E7168C0F3034583B273
:1022200000F44016B6F5401F08D121F070612F4E22
:10223000766826F070662D4F7E6012E000F48016FE
:10224000B6F5801F06D1032606FA05F4A14341F036
:10225000706106E0460D360103FA06F6B14341F01F
:10226000706122B1460D360103FA06F6314300F0E3
:102270000046B6F1004F02D11C4EF16101E01B4E49
:102280007160F0BD30B500228B071C0F0F2303FADD
:1022900004F2164B08338C1053F824309343134C3C
:1022A00008348D1044F8253023468C1053F8243020
:1022B0008C07240F00FA04F423430C4C08348D10CF
:1022C00044F8253030BD0A49DC3108607047000011
:1022D00000080140000C01400010014000140140C2
:1022E00000180140001C0140002001400000014096
:1022F00000002042DF48006840F00100DD4908602E
:1023000008464068DC490840DA49486008460068E9
:10231000DA490840D74908600846006820F4802060
:1023200008600846406820F4FE0048604FF41F0033
:1023300088607047CF49096821F48031CD4A116027
:102340001146096821F480211160B0F5803F03D067
:10235000B0F5802F0ED106E0C649096841F48031FE
:10236000C44A116007E0C349096841F4A021C14A89
:10237000116000E000BF00BF704710B501460022A9
:10238000002300204A11012A02D1BA4C236806E03A
:10239000022A02D1B74C236A01E0B64C636A01F00D
:1023A0001F02012494401C400CB1012000E00020D9
:1023B00010BD38B5002000900024002500BF31205A
:1023C000FFF7DBFF05460098401C00900098B0F531
:1023D000A06F01D0002DF2D03120FFF7CEFF08B161
:1023E000012400E00024204638BD01460020A14A17
:1023F000106820F0F80040EAC10010607047A04962
:1024000008607047024600209A4B586820F47C1000
:1024100042EA01031843974B586070479849086691
:10242000704701460020934A506820F0030008439B
:10243000506070478F48406800F00C0070470146BC
:1024400000208C4A506820F0F0000843506070472C
:1024500001460020874A506820F4E060084350603D
:10246000704701460020834A506820F4605040EADB
:10247000C1005060704729B17E4A527A02437D4BB9
:102480005A7204E07B4A527A82437A4B5A727047FE
:102490007B49D8310860704701460020754A506872
:1024A00020F440400843506070470021714A2032B8
:1024B0001170704A82F82010012802D004280AD135
:1024C00004E001216B4A2032117005E00521694AC0
:1024D0002032117000E000BF00BF704769490860FA
:1024E00070476449096A0143624A1162704765494D
:1024F00044390860704730B50021002200240023D1
:102500005C4D6D6805F00C0121B1042905D0082946
:1025100023D105E05C4D056022E05B4D05601FE0C6
:10252000544D6D6805F47012524D6D6805F4803499
:10253000022505EB92421CB9544D554305600BE052
:102540004C4D6D6805F400351DB1504D5543056087
:1025500002E04D4D5543056002E04B4D056000BF64
:1025600000BF444D6D6805F0F0010909484D6B5CF2
:102570000568DD4045603F4D6D6805F4E061090A7E
:10258000434D6B5C4568DD4085603A4D6D6805F4F0
:102590006051C90A3E4D6B5C4568DD40C560354DF4
:1025A0006D6805F44041890B3A4D6B5CC568B5FB1D
:1025B000F3F5056130BD29B12E4A526902432D4B16
:1025C0005A6104E02B4A526982432A4B5A61704790
:1025D00029B1284A92690243264B9A6104E0254AB0
:1025E00092698243234B9A61704729B1214AD2698B
:1025F0000243204BDA6104E01E4AD26982431D4B3C
:10260000DA61704729B11B4AD2680243194BDA607C
:1026100004E0184AD2688243164BDA60704729B149
:10262000144A12690243134B1A6104E0114A1269F9
:102630008243104B1A617047124940390860704755
:102640000F49C86470470B49C87170470948406A10
:1026500040F0807007494862704701460020054AF3
:1026600092680A400AB1012000E000207047014949
:1026700088727047001002400000FFF8FFFFF6FE6E
:10268000000042428004424200127A0000093D00EC
:102690003E0000204E00002010B50446FB48844256
:1026A00009D101218803FFF7ADFF00214FF48040DD
:1026B000FFF7A8FF32E0F648844209D1012148041F
:1026C000FFF7ADFF00214FF40030FFF7A8FF25E032
:1026D000F048844209D101218804FFF7A0FF0021BE
:1026E0004FF48020FFF79BFF18E0EB48844209D1AC
:1026F0000121C804FFF793FF00214FF40020FFF7EA
:102700008EFF0BE0E548844208D101210805FFF760
:1027100086FF00214FF48010FFF781FF10BD2DE9E7
:10272000F04786B005460E460024A24600BFA146EB
:102730000027B08900B100BF2F462C8A4CF6FF70ED
:102740000440F08804432C82AC894EF6F310044018
:10275000B08831890843718908430443AC81AC8A4D
:102760004FF6FF400440B0890443AC8201A8FFF754
:10277000C2FEC648874202D1DDF810A001E0DDF8B4
:102780000CA0A88900F4004040B10AEBCA0000EB9D
:102790000A1031684900B0FBF1F807E00AEBCA0003
:1027A00000EB0A1031688900B0FBF1F86420B8FB37
:1027B000F0F004012009642101FB1089A88900F4CC
:1027C000004040B1322000EBC900B0FBF1F000F056
:1027D0000700044308E0322000EB09106421B0FB3D
:1027E000F1F000F00F0004432C8106B0BDE8F08743
:1027F0004FF41651016000218180C18001810C21BC
:10280000418100218181704710B502460020108A65
:102810004FF2FF0318400B884C8823438C882343D6
:10282000CC8823431843108210BD002101804180D1
:102830008180C180704721B1828942F40052828137
:1028400004E082894DF6FF731A4082817047F0B52B
:102850000346002400260025002040F66A17B942EE
:1028600000D100BF1846C1F3421401F01F06012732
:1028700007FA06F5012C01D10C3004E0022C01D13D
:10288000103000E014301AB107682F43076002E0EF
:102890000768AF430760F0BD1AB1838A0B43838298
:1028A00002E0838A8B4383827047028A4FF6F0737B
:1028B0001A400282028A0A430282704782894FF2DA
:1028C000FF731A40828182890A438281704721B155
:1028D000828942F00202828104E082894FF6FD7310
:1028E0001A4082817047028A4FF6DF731A400282D3
:1028F000028A0A430282704721B1028A42F480426E
:10290000028204E0028A4BF6FF731A40028270478B
:10291000C1F308028280704701468888C0F308002E
:102920007047818941F0010181817047028BD2B2E9
:102930000283028B42EA012202837047028B02F477
:102940007F420283028B0A430283704721B1828A4D
:1029500042F02002828204E0828A4FF6DF731A403E
:102960008282704721B1828A42F01002828204E0A2
:10297000828A4FF6EF731A408282704721B1828AB1
:1029800042F00802828204E0828A4FF6F7731A400E
:102990008282704721B1828942F40042828103E041
:1029A0008289C2F30E028281704721B1828A42F489
:1029B0000062828204E0828A4FF2FF731A408282B0
:1029C0007047828A4FF6FB731A408282828A0A43DA
:1029D0008282704721B1828A42F00202828204E040
:1029E000828A4FF6FD731A408282704702460020A9
:1029F000B1F5007F00D100BF13880B400BB101205F
:102A000000E00020704701F40072B2F5007F00D1B1
:102A100000BFCA430280704770B5024600240023FD
:102A20000025002040F66A16B14200D100BFC1F374
:102A3000421501F01F03012606FA03F3012D02D10E
:102A40009689334006E0022D02D1168A334001E018
:102A5000968A33400C12012606FA04F41688344094
:102A600013B10CB1012000E0002070BD10B50022B0
:102A7000002340F66A14A14200D100BF0A120124CB
:102A80009440A3B2DC43048010BD00000038014034
:102A90000044004000480040004C0040005000400E
:102AA00031490143314A1160704770B5002100235C
:102AB0000F22C47804B32D4C246804F4E064C4F5F8
:102AC000E064210AC1F10403CA40447804FA03F126
:102AD0008478144021430901254C0678A1550478D7
:102AE00004F01F050124AC4005786D11AD0005F11F
:102AF000E025C5F8004109E0047804F01F05012431
:102B0000AC401C4D0678761145F8264070BD1A4A37
:102B10000A400243154B1B1F1A60704739B1134A14
:102B2000121D12680243114B1B1D1A6006E00F4A6A
:102B3000121D126882430D4B1B1D1A60704704283A
:102B400008D14FF0E021096941F004014FF0E02283
:102B5000116107E04FF0E021096921F004014FF015
:102B6000E0221161704700000000FA050CED00E062
:102B700000E400E080E100E080FFFF1F10B50446A4
:102B8000FE48844208D10121C014FFF73BFD00211B
:102B9000E014FFF737FDC4E0B4F1804F08D1012104
:102BA0000846FFF73CFD00210120FFF738FDB8E0A3
:102BB000F348844208D101210220FFF730FD0021B3
:102BC0000220FFF72CFDACE0EE48844208D1012141
:102BD0000420FFF724FD00210420FFF720FDA0E0E2
:102BE000E948844208D101210820FFF718FD00219F
:102BF0000820FFF714FD94E0E448844208D1012145
:102C00001020FFF70CFD00211020FFF708FD88E0E1
:102C1000DF48844208D101212020FFF700FD002178
:102C20002020FFF7FCFC7CE0DA48844208D1012137
:102C30004014FFF7E7FC00216014FFF7E3FC70E0AD
:102C4000D548844209D10121C804FFF7DBFC0021EB
:102C50004FF40020FFF7D6FC63E0D048844209D14E
:102C600001210805FFF7CEFC00214FF48010FFF78B
:102C7000C9FC56E0CA48844209D101214805FFF742
:102C8000C1FC00214FF40010FFF7BCFC49E0C5482F
:102C9000844208D101214020FFF7C1FC00214020DF
:102CA000FFF7BDFC3DE0C048844208D101218020EF
:102CB000FFF7B5FC00218020FFF7B1FC31E0BB48F5
:102CC000844208D101218015FFF7A9FC0021A0153D
:102CD000FFF7A5FC25E0B648844209D1012108048C
:102CE000FFF790FC00214FF48030FFF78BFC18E0D9
:102CF000B048844209D101214804FFF783FC002138
:102D00004FF40030FFF77EFC0BE0AB48844208D163
:102D100001218804FFF776FC00214FF48020FFF7A3
:102D200071FC10BD00220288944B98420ED0994B42
:102D300098420BD0B0F1804F08D0914B984205D00B
:102D4000904B984202D0904B984204D14FF68F732B
:102D50001A404B881A438D4B984207D08C4B9842AF
:102D600004D04FF6FF431A40CB881A4302808B8869
:102D700083850B880385814B98420BD0854B984205
:102D800008D08B4B984205D08A4B984202D08A4B90
:102D9000984201D10B7A038601238382704770B574
:102DA000002400220023058C4FF6FE763540058472
:102DB000028C8388048B4FF68F752C40B51E2C40F7
:102DC0000D882C43751E2A400D892A434D882A43BD
:102DD0006A4DA8420BD06F4DA84208D0744DA8424E
:102DE00005D0744DA84202D0734DA84213D14FF6BE
:102DF000F7752A404D892A434FF6FB752A408D8886
:102E00002A434FF6FF652B404FF6FF552B408D8927
:102E10002B43CD892B4383800483CD888586028410
:102E200070BD70B5002400220023058C4FF6EF76AC
:102E300035400584028C8388048B48F6FF752C404E
:102E40004FF6FF452C400D884FF6FF7606EA052524
:102E50002C434FF6DF752A400D8906EA05152A43F3
:102E60004D8806EA05152A43444DA84202D0494D33
:102E7000A8421DD14FF67F752A404D894FF6FF7647
:102E800006EA05152A434FF6BF752A408D8806EAE3
:102E900005152A434FF6FF352B404FF2FF752B40A7
:102EA0008D8906EA85052B43CD8906EA85052B43E6
:102EB00083800483CD880587028470BD70B50024AB
:102EC00000220023058C4FF6FF6635400584028CF6
:102ED0008388848B4FF68F752C404FF6FC752C4001
:102EE0000D882C434FF6FF552A400D894FF6FF768B
:102EF00006EA05252A434D8806EA05252A431F4D83
:102F0000A84202D0234DA8421DD14FF2FF752A409E
:102F10004D894FF6FF7606EA05252A434FF6FF3521
:102F20002A408D8806EA05252A434EF6FF752B4078
:102F30004DF6FF752B408D8906EA05152B43CD898B
:102F400006EA05152B4383808483CD888587028418
:102F500070BD70B5002200230024058C4EF6FF766C
:102F600035400584038C8488828B48F6FF752A409F
:102F70004FF6FF452A400D8820E00000002C01405C
:102F80000004004000080040000C00400010004019
:102F90000014004000340140004C0140005001404A
:102FA0000054014000180040001C00400020004078
:102FB0000040014000440140004801404FF6FF76C8
:102FC00006EA05252A434DF6FF752B400D8906EAD2
:102FD00005352B434D8806EA05352B43FA4DA842AB
:102FE00002D0FA4DA84208D14BF6FF752C408D89CE
:102FF0004FF6FF7606EA85152C4384808283CD88C0
:10300000A0F84050038470BD828B4FF2FF331A400A
:103010008283828B4FF6FF7303EA01231A43828374
:103020007047F0B50C461546002200210026078C9B
:103030004EF6FF7C07EA0C070784828B018C4FF663
:10304000FF7707EA043640F6FF473A404FF6FF772E
:1030500007EA05273A434FF6FF7707EA03373A4373
:10306000D94FB8420ED0D94FB8420BD0B0F1804FF3
:1030700008D0D74FB84205D0D64FB84202D0D64F6D
:10308000B84206D14DF6FF77394046F480573943B0
:1030900005E047F6FF57394044F4805739438283AF
:1030A0000184F0BD828B4FF6F3731A408283828BCA
:1030B0000A4382837047F0B50C4615460022002172
:1030C0000026078C4FF6FF6C07EA0C070784828BFB
:1030D000018C4FF6FF7707EA04264FF60C773A404B
:1030E0004FF6FF7707EA03172F433A43B64FB8422C
:1030F0000ED0B64FB8420BD0B0F1804F08D0B44FCD
:10310000B84205D0B34FB84202D0B34FB84206D14F
:103110004FF6FF57394046F48077394305E04FF2C8
:10312000FF57394044F48077394382830184F0BDEE
:10313000028B4FF2FF331A400283028B4FF6FF736C
:1031400003EA01231A4302837047F0B50C46154683
:10315000002200210026078C4FF6EF7C07EA0C07BF
:103160000784028B018C4FF6FF7707EA041640F6BE
:10317000FF473A404FF6FF7707EA03373A434FF6E7
:10318000FF7707EA05273A438F4FB8420ED08F4F9B
:10319000B8420BD0B0F1804F08D08D4FB84205D067
:1031A0008C4FB84202D08C4FB84206D14FF6DF7731
:1031B000394046F01007394305E04FF65F77394054
:1031C00044F01007394302830184F0BD028B4FF6AF
:1031D000F3731A400283028B0A4302837047F0B5EF
:1031E0000C46154600220021068C4FF6FE773E4025
:1031F0000684028B018C4FF60C7632407E1C06EA68
:1032000003162E433243704EB0420ED06F4EB04282
:103210000BD0B0F1804F08D06D4EB04205D06D4E4E
:10322000B04202D06C4EB04206D14FF6FD7631402E
:1032300044F00106314305E04FF6F576314044F0A5
:103240000106314302830184F0BD70B505460C468A
:103250005D4885420ED05D4885420BD0B5F1804F68
:1032600008D05B48854205D05A48854202D05A486A
:10327000854200D100E000BF208850B92389A28890
:1032800061882846FFF7ABFFE1882846FFF79EFFDD
:1032900025E0208804280AD12389A288618828464D
:1032A000FFF753FFE1882846FFF742FF17E0208829
:1032B00008280AD12389A28861882846FFF7FBFEE7
:1032C000E1882846FFF7EEFE09E02389A28861889D
:1032D0002846FFF7A6FEE1882846FFF795FE70BD59
:1032E0002DE9F04105460C4600260127608808B903
:1032F000022600E00026A088012801D1022700E074
:1033000001272088A0B92389A28861882846FFF771
:1033100066FFE1882846FFF759FF23893A46314680
:103320002846FFF712FFE1882846FFF701FF13E068
:103330002389A28861882846FFF707FFE18828468D
:10334000FFF7F6FE23893A4631462846FFF747FF46
:10335000E1882846FFF73AFFBDE8F0810A884B88EC
:103360001A438B881A43CB881A430B891A434B891B
:103370001A438B891A43A0F8442070474FF6FF7117
:10338000818000210180C18041800172704700214D
:10339000018041808180C180018141818181C18121
:1033A0007047002101804180012181800021C1807E
:1033B000018170470021018041808180C1800181AD
:1033C0004181818170470000002C014000340140A0
:1033D0000004004000080040000C004021B10288B9
:1033E00042F00102028004E002884FF6FE731A40A8
:1033F0000280704731B1B0F8442042F40042A0F896
:10340000442005E0B0F84420C2F30E02A0F84420A6
:1034100070471AB183890B43838102E083898B4310
:10342000838170478182704741EA0203A0F84830E7
:1034300070471AB183890B43838102E083898B43F0
:103440008381704701894FF6F872114001817047FE
:103450000A46002101894FF68F73194011430181FB
:10346000704730B504460D4629462046FFF7F0FF69
:10347000208940F00700208130BD2DE9F04104464D
:103480000D4616461F46602D06D13B4601223146A9
:103490002046FFF75AFE05E03B4601223146204612
:1034A000FFF79DFE29462046FFF7D2FF208940F016
:1034B00007002081BDE8F08130B50C46002101896C
:1034C000C9B24FF6FF7505EA032515432543294385
:1034D000018130BD2DE9F04105460E46174698465C
:1034E000002443463A4631462846FFF7E5FF2C893B
:1034F0004FF6F870044044F007044FF68F70044014
:1035000044F070042C81BDE8F081F0B504460D460E
:1035100016461F463B46324629462046FFF7CCFF5B
:10352000208940F480402081F0BD0185828270476F
:103530000A46002101884FF68F731940114301801C
:103540007047F0B50C4615461E46002100220023A8
:103550000189028B038C4FF6F877394021434FF6EF
:10356000FC473A4040F201173A434FF6DD773B40C3
:103570004FF6FF7707EA06172F433B43018102838B
:103580000384F0BD0A460021018B4FF68F7319406A
:103590001143018370470A460021018B48F6FF73EF
:1035A00019404FF6FF7303EA022319430183704762
:1035B0000A460021818B4FF68F7319401143818396
:1035C00070470A460021818B48F6FF7319404FF679
:1035D000FF7303EA022319438183704721B10288F4
:1035E00042F08002028004E002884FF67F731A40A6
:1035F0000280704721B1828842F00402828004E098
:1036000082884FF6FB731A408280704721B182880E
:1036100042F00802828004E082884FF6F7731A4075
:103620008280704721B1828842F00102828004E0EA
:1036300082884FF6FE731A40828070470A46002146
:10364000018B4FF6F77319401143018370470A4607
:103650000021018B4FF2FF7319404FF6FF7303EA0D
:1036600002231943018370470A460021818B4FF6DC
:10367000F77319401143818370470A460021818BFB
:103680004FF2FF7319404FF6FF7303EA0223194309
:10369000818370470A460021018B4FF6FB73194066
:1036A0001143018370470A460021018B4FF6FF3317
:1036B00019404FF6FF7303EA022319430183704751
:1036C0000A460021818B4FF6FB7319401143818319
:1036D00070470A460021818B4FF6FF3319404FF6A1
:1036E000FF7303EA02231943818370470A460021CE
:1036F000018B4FF67F7319401143018370470A46CF
:103700000021018BC1F30E014FF6FF7303EA022380
:103710001943018370470A460021818B4FF67F735E
:1037200019401143818370470A460021818BC1F300
:103730000E014FF6FF7303EA02231943818370479A
:103740000A460021018C4FF6FD7319401143018494
:1037500070470A460021018C4FF6F7731940114358
:10376000018470470A460021018C4FF6DF7319402F
:103770004FF6FF7303EA02131943018470470A46A8
:103780000021018C4FF67F7319404FF6FF7303EA57
:1037900002131943018470470A460021018C4FF639
:1037A000FF5319404FF6FF7303EA022319430184C4
:1037B00070470A460021018C4FF2FF7319404FF603
:1037C000FF7303EA02231943018470470A4600216C
:1037D000018C4DF6FF7319404FF6FF7303EA023375
:1037E00019430184704730B5002301248C40A3B2F3
:1037F000048C9C430484048C02FA01F5ADB22C4382
:10380000048430BD30B5002304248C40A3B2048C62
:103810009C430484048C02FA01F5ADB22C43048469
:1038200030BD70B50346002000241846183001252D
:103830008D40ACB21D8CA5431D8409B1082909D166
:1038400000EB6100056825F070050560056815430B
:1038500005600EE00D1FC5F34E052844056825F4EC
:10386000E045056005684FF6FF7606EA0226354317
:10387000056070BD21B1028842F00202028004E0BE
:1038800002884FF6FD731A400280704721B102880A
:1038900042F00402028004E002884FF6FB731A40F3
:1038A0000280704721B1828842F08002828004E069
:1038B00082884FF67F731A408280704702884FF6E5
:1038C000F7731A40028002880A4302807047828898
:1038D0004FF68F731A40828082880A438280704735
:1038E00002894FF6F8731A40028102890A43028165
:1038F000704702894FF67F731A40028102890A439A
:103900000281704781847047818570478186704746
:103910000187704781877047A0F840107047028880
:103920004FF6FF431A40028002880A430280704724
:103930000146888E70470146088F70470146888F80
:1039400070470146B1F8400070470146888C7047C7
:103950000146088D704702460020138A0B400BB1C8
:10396000012000E000207047CA430282704730B552
:103970000246002000230024158A05EA01039589E8
:1039800005EA010413B10CB1012000E0002030BDB4
:10399000CA430282704770470FB4044910B503AAA6
:1039A000029800F017FB10BC5DF814FB34000020F7
:1039B00070B5044685690068C10601D5302600E06F
:1039C0002026C00707D070BDD4E9012130469047BA
:1039D000206A401C20626D1EF6D570BD70B504468D
:1039E00085690078C00707D170BDD4E90121202086
:1039F0009047206A401C20626D1EF6D570BD2DE9EF
:103A0000F0474FF0000A89460446C0F820A020463F
:103A1000E1688847002876D0252806D0D4E901211E
:103A20009047206A401C2062F1E7E16820460025AB
:103A30008847C4F81CA006460027C4F818A02A2E00
:103A400009D0304601F072FB38B304EB8708303EF2
:103A5000C8F8186019E059F8041B204604EB8702E7
:103A60009161E1688847012F064618D1E069002876
:103A700020DA25F020051DE0D8F8180000EB8000C2
:103A800006EB40003038C8F818002046E168884747
:103A9000064601F04BFB0028EED1012F0AD02E2E56
:103AA00008D12046E16888477F1C0646022F45F072
:103AB0002005C4DBA069002803DA404245F0010577
:103AC000A061E80701D025F01005B6B1A6F14100CC
:103AD000192802D8203645F400654A46314620466A
:103AE00025604D46FCF75EFB58B1012806D0ED1D60
:103AF00025F0070000F1080989E704E005F1040951
:103B000085E730468AE7206ABDE8F0870B4910B5A3
:103B1000A1F17C020A4CC2E93712372106E000EB22
:103B2000104342F82130074B00FB03400B1EA1F16C
:103B30000101F4DC10BD0120E8E70000C001002015
:103B4000E119D666CD0D01004FF0000200B5134615
:103B500094469646203922BFA0E80C50A0E80C50AD
:103B6000B1F12001BFF4F7AF090728BFA0E80C505E
:103B700048BF0CC05DF804EB890028BF40F8042B57
:103B800008BF704748BF20F8022B11F0804F18BFC4
:103B900000F8012B7047704770477047704710B5A9
:103BA00000F02EFA006810BD10B5044600F028FAA7
:103BB000046010BD70472DE9FF4F0C461E464FF0C4
:103BC000FF378BB0D2E90001DDF860800A908A46A9
:103BD000C1F30A5505B93D46002108464FF00000E3
:103BE000BAF1000F00F4400005DA00EB80004FF45A
:103BF000400101EA50004FEA9059B9F1010F00DD90
:103C0000B9460A9850EA4A000ED044F61050A5F280
:103C1000FF3545432F14B8F1000F1ED07542291E01
:103C20001EDDC9F100021CE0B8F1010F4FF00000E9
:103C300001D0302103E0F24305E02154401CB042A2
:103C4000FBDB30460022002121540B99C1F808808B
:103C5000C1E900200FB0BDE8F08FBD1B6D1CDEE791
:103C60004A4600DA694206A800F06CFA06AB93E80F
:103C7000070003AB83E8070050460A9900F04AFBAF
:103C80008DE80700A0F500501F3800900398002D24
:103C90000ADD42F21F014A460844002303A90390AB
:103CA000684600F0B3FD09E0A0F500504A461F3811
:103CB000002303A90390684600F0BDFD8DE80700CE
:103CC0000004000C03D04FF0FF30410800E0104624
:103CD000B8F1000F03D00022009215461EE0751EB9
:103CE00005D400F091F9303262556D1EF9D5B34616
:103CF0000122084302D000227F1C04E020783028F3
:103D000001D100227F1E002A099784D01DE0112DC9
:103D100007DA00F079F9303262556D1C50EA010281
:103D2000F5D1084302D00098C8B10EE00021681E0A
:103D300005E0235C625C63542254401E491C8142AE
:103D4000F7DBAB46A81B401E0990002004F80B00CF
:103D50000B98099AC0F80880C0E9002B7AE7112671
:103D60004FF0000857E72DE9F04F88460446D21D72
:103D700022F0070191B0D1E90001CDE90A0100F07C
:103D800091FE02460B98C00F01D02D2007E020685D
:103D9000810701D52B2002E0202101EAC000032A7F
:103DA000099001D0072A05DB03464146204600F072
:103DB00089F90BE12078800601D5E06900E0062052
:103DC000B8F1650F814606D0B8F1660F18D0B8F18A
:103DD000670F70D131E00020B9F1110F009001DBC5
:103DE000112301E009F101030AAA01A90CA8FFF7B8
:103DF000E2FEDDE90C70002609F10105834647E08B
:103E000001204B4600904FF000470AAA01A90CA8D8
:103E1000FFF7D1FEDDE90DB00C995D46002610B923
:103E200009F101000D18B9EB050003D4C0F1FF360C
:103E300009F10105A5EB09002BE0B9F1010F01DA49
:103E40004FF001090020B9F1110F0090484601DD43
:103E5000112300E003460AAA01A90CA8FFF7ABFE54
:103E6000DDE90C704D4600268346207800070AD411
:103E7000AB4500DA5D4601A8012D04DD411911F8BA
:103E8000011C302907D04F4502DA17F1040F04DA7C
:103E9000012082460FE06D1EEEE7002F02DCED1BD5
:103EA0003E4403E0781CA84200DD7D1CB81B00F1F5
:103EB000010A4FF000472078000703D4AA4501DB30
:103EC0004FF0FF3A0021B7F1004F0DF143088DF894
:103ED000431024D002202B23002F01DA7F422D2310
:103EE0000A21021EA0F1010000DC5FB197FBF1FC8A
:103EF00097FBF1F201FB1C7C17460CF1300C08F823
:103F000001CDEEE7A8F1010003702188090501D574
:103F1000452100E06521A0F1010800F8011C099885
:103F20000FA9A1EB0807FF1D00B10120411901EB0A
:103F3000EA70A1693844081A401EA0612078C006C2
:103F400002D42046FFF734FD099828B1D4E90121B5
:103F50009047206A401C20622078C00622D5204667
:103F6000FFF726FD1EE0002E04DBB34502DD01A8AD
:103F7000805D00E03020D4E901219047206A401C98
:103F80002062761CAAF101005FEA000A0AD100F063
:103F900033F8C0680168405CD4E901219047206A89
:103FA000401C2062281EA5F10105DCDC07E0D4E9F5
:103FB000012118F8010B9047206A401C2062381E2E
:103FC000A7F10107F3DC2046FFF708FD032011B03D
:103FD00041E60000074B70B50D467B4400F05FF8EA
:103FE0000446284600F020F910B14FF0FF3070BDB4
:103FF000204670BD6DDDFFFF00487047480200207D
:10400000004870472802002030B5B0F10A024FEA9C
:10401000900E71F100034EEA817EB0EB0E0061EB71
:1040200091014FEA101E4EEA017E10EB0E0041EBAB
:1040300011114FEA102E4EEA016E10EB0E0041EB0B
:1040400011214FEA104E4EEA014E10EB0E0041EBEB
:104050001141401841F100014FEAD00040EA41709F
:104060004FEAD10110EB80054FEA810444EA9074D5
:1040700044EB01046D1944EB0404521BA3414FF0BF
:10408000000348BF0A3200D530BD401C41F1000199
:1040900030BD000001694A1C02610878704700B514
:1040A0008FB0CDE901310021059105497944CDE971
:1040B000031011466846FFF7A2FC0FB000BD0000D8
:1040C000E5FFFFFF2DE9F0411F4604460326016886
:1040D000072A01F4006004DB08B116A505E016A567
:1040E00003E008B115A500E015A521F0100020603F
:1040F000A069C01EA0610FB1401EA0612046FFF75D
:1041000057FC4FB1D4E9012138469047206A401C42
:104110002062C01C206206E0206AFAE7D4E901218F
:1041200015F8010B9047761EF8D22046FFF756FC93
:10413000BDE8F0814E414E006E616E00494E460072
:10414000696E66002DE9F047814616468AB035480B
:1041500078440DC88DE80D0032487844801C03ACCB
:104160000DC884E80D0041F69B300844372190FBD0
:10417000F1F290FBF1F5A5F1800501FB12041B3C67
:1041800002D56442012000E00020DFF898A08046BC
:104190000027FA44AAF1BE0A0EE0E0070AD0324630
:1041A000684607EB470101230AEB810100F043FB5E
:1041B0008DE8070064107F1C002CEED1194F7F445E
:1041C000AE3F19E0E80715D007EB04100DF1180A0F
:1041D00090E80E008AE80E00C068F04201D19819FC
:1041E00008903246012306A903A800F024FB03AB84
:1041F00083E807006D10641C002DE3D14FF001032C
:1042000032466946B8F1000F03A802D000F0FEFA6A
:1042100001E000F010FBC9E90001C9F808200AB06C
:10422000BDE8F087182F0000007B00F08000704789
:1042300000487047280200207546FFF7F9FFAE4698
:1042400005006946534620F00700854618B020B5A2
:10425000FDF790FEBDE820404FF000064FF000074C
:104260004FF000084FF0000B21F00701AC46ACE81E
:10427000C009ACE8C009ACE8C009ACE8C0098D468B
:10428000704710B50446AFF300802046BDE81040EB
:10429000FBF7A4BF4FF0013C50F8042B51F8043B4E
:1042A0009A4221D1A2EB0C03934313EACC1317D10A
:1042B00050F8042B51F8043B9A4215D1A2EB0C03A1
:1042C000934313EACC130BD150F8042B51F8043B61
:1042D0009A4209D1A2EB0C03934313EACC13DBD02F
:1042E0004FF00000704700BFD01A01BAB1FA81F157
:1042F00001F0180122FA01F0CB40C1F12001DBB23C
:10430000C0B2C01A2CFA01F3D11A914311EAC311B9
:10431000E6D170475FEA400C08BF91F0000F4FEA0A
:104320008C234FEAC12243EA51514FEA1C5018BF77
:1043300000F5F0404FEA300018BF41F000415FEA5D
:104340006C5C00F02980BCF1FF3F08BF40F080406A
:104350007047130C06BF12044FF0100C4FF0000C06
:10436000130E04BF12020CF1080C130F04BF12014C
:104370000CF1040C930F04BF92000CF1020CD30F4C
:1043800004BF52000CF1010C11464FF00002A0F1E5
:104390001F00A0EB0C00704711F0004F08BF7047E2
:1043A00031F000413FF4D5AF0B0C06BF09044FF0CC
:1043B000100C4FF0000C0B0E04BF09020CF1080C9E
:1043C0000B0F04BF09010CF1040C8B0F04BF890013
:1043D0000CF1020CCB0F04BF49000CF1010CCCF125
:1043E0002003A0EB0C0022FA03F302FA0CF241EADC
:1043F000030100F10100704720F07F4C80EA0300C8
:1044000023F07F47ACEB070303F57C5300F000403B
:1044100003F1FF032DE980494FEA154B09B44FEA38
:10442000144325EA0B4E24EA03480FF2042606EB58
:10443000132749083E785FEA320203FB0667C7F597
:10444000000707FB06F64FEA54374FEAD64606F157
:10445000020607FB066CCCF1005C4FEA1C472CEA15
:10446000074C07FB06F40CFB06F504EB15464FEA78
:10447000961634BF00204FF000404FEAD13706FBBC
:1044800007FC4FEA1C4C0CFB0BF7D21B03FB0CF791
:1044900061EB07010CFB0EF7B0EB074072EB174224
:1044A0000CFB08F734BFA2EB0742B2EB074261EB0B
:1044B00017414FEA0C444FEA910706FB07FC4FEA0D
:1044C0001C4C0CFB0BF7B0EBC74072EB573203FBF5
:1044D0000CF734BFA2EBC742B2EBC74261EB5731D6
:1044E0000CFB0EF7B0EBC70072EB57720CFB08F732
:1044F00034BFA2EBC702B2EBC70261EB5771039F57
:104500004FEA816141EA921104EBCC044FEAD137C2
:104510004FEA826206FB07FC42EA90124FEA806093
:104520004FEA1C4C0CFB0BF7D21B03FB0CF761EBA7
:1045300007010CFB0EF7B0EB074072EB17420CFBC8
:1045400008F734BFA2EB0742B2EB074261EB174119
:104550004FEA8C554FEA910704EB9C2406FB07FCBD
:104560004FEA1C4C0CFB0BF7B0EBC74072EB573219
:1045700003FB0CF734BFA2EBC742B2EBC74261EBBF
:1045800057310CFB0EF7B0EBC70072EB57720CFB08
:1045900008F734BFA2EBC702B2EBC70261EB577159
:1045A00015EB4C254FEA816141EA92114FEA826294
:1045B0004FEAD13742EA901206FB07FC44F10004AF
:1045C0004FEA80604FEA1C4C0CFB0BF7D21B03FB3D
:1045D0000CF761EB07010CFB0EF7B0EB074072EB39
:1045E00017420CFB08F734BFA2EB0742B2EB0742BD
:1045F00061EB174115EB1C154FEA813141EA9241FD
:104600004FEA823242EA90424FEA80304FEA0C761B
:1046100044F1000448EA03434EEA0B484FF0000E11
:10462000B2EB080C71EB030724BF624639464EEB30
:104630000E0E4FF0000B0018524149414BEB0B0B93
:10464000B2EB080C71EB03077BF1000B24BF624651
:1046500039464EEB0E0E4FF0000B00185241494107
:104660004BEB0B0BB2EB080C71EB03077BF1000B70
:1046700024BF624639464EEB0E0E51EA020718BFC0
:1046800046F0010616EB0E7655F1000254F10001DA
:1046900003D5BDE88901BDE80088BDE88901BDE812
:1046A0000048B619524141EB0101A3F101037047E3
:1046B00080807F7E7D7C7B7A79787776767574735F
:1046C000727171706F6E6E6D6C6C6B6A6A6968681E
:1046D000676666656464636362616160605F5F5EB4
:1046E0005E5D5D5C5C5B5B5A5A595958585757562A
:1046F000565555555454535352525251515050508F
:104700004F4F4F4E4E4D4D4D4C4C4C4B4B4B4A4AE0
:104710004A49494948484847474747464646454524
:10472000454444444443434343424242424141415D
:10473000002B9C4630D477002BD01CB54FEA3707AE
:1047400003B44FF010004FF01001BAF1000F06D083
:10475000BCF1000FDCBF40F0080040F008014FF052
:1047600000000FBCBDE810400BF1010BBBF1010FC5
:1047700008BF5FEA170722BF12F1010211F1010120
:104780004FF0004143F1000300F0004043EA000015
:104790007047F9D35708D0E746EA064613F1400FB1
:1047A0004FEA16461FDD13F1200FDFBF16430A46FE
:1047B000002120335B42BED0C3F1200746EA064603
:1047C00002FA07F74FEA164646EA0706C3F1200742
:1047D00022FA03F201FA07F721FA03F14FF000037E
:1047E00042EA0702A7E746EA020646EA06464FEA19
:1047F000164646EA0106BCBF46EA0646360C4FF0AE
:1048000000034FF000024FF0000194E72DE9804CC7
:104810009A46934670B491E8380007C831EA400CD4
:1048200048BF34EA430C03D5FFF7E6FDFFF780FFEE
:10483000F0BCBDE8008C2DE9804C9A46934670B4DC
:1048400091E8380007C810F0804F08BF13F0804F80
:1048500003D100F005F8FFF76BFFF0BCBDE8008C5A
:1048600020F07F4780EA030023F07F4C07EB0C0326
:10487000A3F57C5300F00040A3F1FE0392F0000F7B
:1048800000F0B38095F0000F00F077802DE901492A
:104890004FEA11404FEA144621EA004800FB06FCAB
:1048A00024EA064708FB06F607FB08F800FB07F7B3
:1048B00018EB06484CEB164C4FEA124B18EB074826
:1048C0004FEA15464CEB174022EA0B4E0BFB06FC59
:1048D00025EA06470EFB06F607FB0EFE0BFB07F765
:1048E0001EEB064E4CEB164C4FF000061EEB074E2F
:1048F0004CEB174B18EB0B0840F1000018EB0E0BBC
:1049000058EB000840F100008F1A4FF000013CBF47
:10491000C943661B14BFB5EB040C00213CBFC9435F
:10492000F61B4FEA17444EEA8E0E27EA04454FEA7B
:104930001C4704FB07622CEA074C05FB07F70CFB3E
:1049400005F604FB0CFC16EB074642EB174216EB90
:104950000C4642EB1C421BEB060658EB020241419F
:1049600046EA9E0601D5BDE80189B619524141EBE0
:104970000101A3F10103BDE801894FEA14454FEAA3
:10498000114724EA054621EA074C05FB07F406FB1C
:1049900007F70CFB06F105FB0CFC11EB074144EBA0
:1049A00017444FEA124711EB0C4144EB1C4422EA36
:1049B000074C05FB07F206FB07F70CFB06F605FBA9
:1049C0000CFC16EB074642EB174216EB0C4642EB8B
:1049D0001C456A1854F1000148BF7047B61952418E
:1049E00041EB0101A3F10103704795F0000F37D0AF
:1049F0004FEA11424FEA144721EA024624EA074CE3
:104A000002FB07F106FB07F70CFB06F402FB0CFCAC
:104A100014EB074441EB17414FEA154714EB0C44E4
:104A200041EB1C4125EA074C02FB07F506FB07F7A3
:104A30000CFB06F602FB0CFC16EB074645EB174594
:104A400016EB0C4645EB1C42121951F1000148BF10
:104A50007047B619524141EB0101A3F101037047C0
:104A60004FEA14454FEA114724EA054621EA074C6C
:104A700005FB07F106FB07F70CFB06F24FF00006FB
:104A800005FB0CFC12EB074241EB174112EB0C4209
:104A900051EB1C4148BF7047921841EB0101A3F153
:104AA00001037047490050EAC12018BF04204A0D95
:104AB00018BF40F0010040F2FF72B2EB515F08BF37
:104AC00040F00200012808BF052070472DE9F74F8C
:104AD000144694B00021C4E902111599079121F000
:104AE0000045C9498D4206DC1599C4E9000117B09B
:104AF0000020BDE8F08FC549DFF814A3A9423CDDD2
:104B00000799C44E0029C44FC44A1599534619DD6C
:104B100001F00AFE554506D0C14AC24B01F004FE21
:104B2000C4E900010AE04FF0D352BE4B01F0FCFD96
:104B300032463B4601F0F8FDC4E9000117B0012000
:104B4000BDE8F08F01F0F2F8554506D0B44AB54BF8
:104B500001F0ECF8C4E900010AE04FF0D352B14B88
:104B600001F0E4F832463B4601F0E0F8C4E9000108
:104B700017B04FF0FF30BDE8F08FAB49A94215994F
:104B800078DB21F0004183468846A84AA84B01F013
:104B9000A5FB0022A74B01F0C9F801F0DBFA099050
:104BA00001F035FB06460F469C4A534601F096FB42
:104BB00043465A4601F0C6FC80468A46984A994BBD
:104BC0003046394601F08AFB2A0D01250B924246F8
:104BD000534601F0B7FC032DC4E9000139D00B980E
:104BE000C1F30A51401A05EB45111139814230DAFF
:104BF0009148C346784400EB0510CDF80CA00C900A
:104C0000D0E900233046394601F068FB02460B46E6
:104C1000049106905846039901F086FD80468A4625
:104C200002460B465846039901F07EFD049B069A06
:104C300001F07AFD83460C9803913946D0E90223AE
:104C4000304601F04BFB5A46039B01F06DFD6D1C95
:104C5000BDE707980028A2BF099817B0BDE8F08FFC
:104C6000616881F000416160099817B04042BDE879
:104C7000F08FFFE784461598C1F31301C0F30A5083
:104C8000A0F2F5304FEA601800F01F06C6F12000D0
:104C9000139000200690079041F4801E05206D4679
:104CA00076B1664A08EB00017A4452F8213002EBF3
:104CB0008101B3404A68139922FA01F1194305E0D2
:104CC0005F4908EB0002794451F82210A1FB0E273E
:104CD000A1FB0C131A449A4234BF0123002303EBB7
:104CE000070A05EB8003D3E901B70F448F4234BFB5
:104CF0000121002193448B4411B1934502D903E073
:104D0000934501D2012100E00021C3E901B75144DC
:104D100045F82010011EA0F10100C1DC0298059F9A
:104D200000F10050800F12900298DDE903568000D8
:104D300001F06DFA834628460D9101F07FFA6FF07D
:104D40001D0202F036F8CDE90E01304601F076FA88
:104D50006FF03D0202F02DF880468A46384601F099
:104D60006DFA6FF05D0202F024F8074642465346A2
:104D7000119100F0DBFFDDE90E2300F0D7FF5A466A
:104D80000D9B00F0D3FF00250E465A4628460D9B8A
:104D900001F0CAFCDDE90E2301F0C6FC4246534691
:104DA00001F0C2FC3A46119B01F0CCFBDFF898A061
:104DB000244A534601F092FA07468846234A244B78
:104DC0003146284601F08AFA3A46434600F0AEFFE3
:104DD000074688464FF0A84253463146284601F020
:104DE0007DFA3A46434600F0A1FF159A12F0004FB3
:104DF00004D0129A81F0004152421292C4E900019B
:104E0000129817B0BDE8F08FFB21E93F7CD9024032
:104E1000FB21F93F7370032E8A19A33B0000405415
:104E20003163621A61B4D03DFB21394183C8C96D39
:104E3000305FE43F0000E03F0823000084220000D0
:104E400066220000182D4454FB21F93D3326A6119B
:104E5000460B113C2DE9FF4D21F0004807460C465A
:104E6000B8F1795F08DA01F075F9002801BF002078
:104E7000324904B0BDE8F08D3A4623461046194643
:104E800001F02CFA054602462D480E460B46062137
:104E9000784400F05DF82A46334601F01FFADDE958
:104EA000022382468B463846214601F017FA044613
:104EB0000F4652465B462846314601F00FFA22461D
:104EC0003B4601F031FC07468A464FF0FF32284648
:104ED000314601F06EFF1B4A90450ADA3A465346C6
:104EE00001F022FC04B00022BDE8F04D134B01F0AC
:104EF00029BB154A4245A8BFA8F500154FF000048C
:104F0000B8BF124D22462B4601F00EFC06468846DD
:104F100022462B460020094901F006FC04460D46B6
:104F20003A4653463046414601F0FEFB04B0224665
:104F30002B46BDE8F04D01F005BB00000000F03F3E
:104F4000342000003333D33F0000E93F0000D23F5C
:104F50002DE9F0414F1E00EBC7010446D1E90001E5
:104F600015461E4637F006020DD02A46334601F09C
:104F7000B5F97F1E04EBC703D3E9002300F0D6FE8A
:104F800037F00602F1D1022F25D0042F13D0062FBF
:104F900018BFBDE8F0812A46334601F09FF9D4E9F5
:104FA0000A2300F0C3FE2A46334601F097F9D4E9FC
:104FB000082300F0BBFE2A46334601F08FF9D4E9FE
:104FC000062300F0B3FE2A46334601F087F9D4E900
:104FD000042300F0ABFE2A46334601F07FF9D4E902
:104FE000022300F0A3FE2A46334601F077F9D4E904
:104FF0000023BDE8F04100F099BE00002DE9FF4D0F
:10500000054621F0004084B00C46B0F1795F0BDA20
:105010002846FFF747FD042808BF00F07FF8284620
:1050200008B02146BDE8F08D2A460B46104601F037
:1050300055F906460F462A46234601F04FF98046A9
:1050400026488A4632463B4605217844FFF780FFD2
:1050500083461098029160B3214A224B4046514644
:1050600001F03CF9CDE900015A4640465146029B09
:1050700001F034F982468846DDE906014FF0FF323F
:1050800001F097FE5246434601F04EFB32463B4646
:1050900001F024F9DDE9062301F046FBDDE90023F8
:1050A00001F042FB08B02A462346BDE8F04D01F06E
:1050B00049BA0B465A463046394601F00FF9084ABC
:1050C000084B00F033FE4246534601F007F908B0A2
:1050D0002A462346BDE8F04D00F028BE7A1F0000A6
:1050E000495555555555C5BF00221346104601492F
:1050F00000F0D8BE0000F03F012201F05ABE00F0DF
:1051000015BE002213461046114600F0CBBE40F2F9
:10511000013200204FF0E04101F04BBE024A002076
:10512000110701F046BE000001FDFFFF30380A28DC
:1051300001D20120704700207047000000B5244BC9
:1051400021F0004287B09A42DCBF0022134629DDDD
:10515000204B9A4208D140B94FF00100FEF724FDE0
:10516000FFF7CFFF07B000BD03DBFFF7C5FF07B0B8
:1051700000BD02AAFFF7AAFC10F0030104BF0DF165
:10518000080C9CE80F000DD0012001290ED0022947
:1051900014D00DF1080C00909CE80F00FFF72EFFD3
:1051A00007B000BDFFF756FE07B000BD0DF1080CBB
:1051B00000909CE80F00FFF721FF05E00DF1080CBF
:1051C0009CE80F00FFF746FE07B081F0004100BDEC
:1051D000FB21E93F0000F07F2DE9F04D1D460C4614
:1051E00098B0174621F0004123F00043002814BF77
:1051F0004FF0010C4FF0000C0CEB440CFE4A0CEB92
:1052000002064FEA620C66452BD33E0018BF01260A
:1052100006EB45061644F94A964222D3F84A53EA69
:10522000070C02D0944205D148B918B000201146AD
:10523000BDE8F08D002808BF4FF0000C01D04FF002
:10524000010C0CEB440212F5001F0AD8002F14BF0A
:105250004FF0010C4FF0000C0CEB450212F5001F53
:1052600007D918B03A462B462146BDE8F04DFFF766
:1052700046BF0022DFF88CA3002CB8BF534526DAC6
:10528000DFF884C36345A8BF022220DADFF870C3C9
:105290009C451CDCDFF874C30CEB235CBCF1140FE1
:1052A00008DDCCF1340627FA06FC0CFA06F6BE42FD
:1052B0000DD108E05FB9CCF1140623FA06FC0CFA14
:1052C00006F69E4203D10CF00102C2F1020251EA3D
:1052D000000C19D1002D17DA002C18BF022A01D0BA
:1052E000012A07D00220FEF75FFC18B0BDE8F04DA0
:1052F000FFF7FABE0220FEF757FCFFF7F5FE18B0E5
:1053000081F00041BDE8F08DB7F1000C6CD1534540
:1053100025D104F1804212F5801201BF002800203F
:10532000B74918B008BFBDE8F08DB548884207DC22
:10533000002DA1BF6046294618B0BDE8F08D07E0FA
:10534000281E05DA80F0004118B06046BDE8F08DF7
:10535000AF497944D1E9000118B0BDE8F08DDFF81C
:10536000A0C2634525D1002D1FDA19B1514512D1D4
:10537000D8B909E0002840F0EC82A24A214618B0D2
:1053800062F31E01BDE8F08D0020214618B060F3E5
:105390001E01BDE8F08D08DA18B02346BDE8F04DD7
:1053A00002460020614600F07DBD18B02146BDE8F0
:1053B000F08D514518DAB5F1804F0DD0A5F1005CA4
:1053C000BCF1FF5C10D1B4F1000C0DDB18B06146EC
:1053D000BDE8F04D00F03CBC234618B00246BDE8E5
:1053E000F04D194600F07ABF060024F0004C3BD186
:1053F000D9B1514533D1002C06DD002DA1BF0020CD
:10540000514618B0BDE8F08D002C01DD002D1BDBEE
:10541000002C13DA002D11DB012A4FF0000014BF1D
:1054200078497C4918B0BDE8F08D022A18BF002CDD
:105430000AD0012A08D1002C06DA0AE0002CB8BFF5
:10544000002D11DA012A04D0002018B00146BDE871
:10545000F08D18B000204FF00041BDE8F08DA1F1B3
:105460004050B0F17F601AD0012000EBE47050EAA8
:10547000020421D0624C521E4FF0000B104304BFB7
:105480004FF0000B644C654883427CDD644A6548FC
:1054900093421FDD884217DB002D25DB37E0002C0F
:1054A00000DA4AB1022A0CBF01204FF0FF3018B0D9
:1054B000BDE8F04D00F0ABBE0120FEF775FB18B063
:1054C000BDE8F04DFFF71DBE4D4A8A4202DC002DBB
:1054D0000ADC1CE0814202DA002D18DA04E0484BB5
:1054E000994220DD002D12DD0220FEF75DFBFFF763
:1054F0000EFE05460E46002253465846214600F051
:10550000EDFE18B066F31E012846BDE8F08D0220BE
:10551000FEF74AFBFFF702FE0A46214618B062F387
:105520001E01BDE8F08D00223046614601F0FCF816
:1055300080460E466FF0010201F03BFC4FF0553201
:10554000394B00F0FFFF4246334600F0C7FE002211
:10555000364B00F0F7FF8246424633460491104630
:10556000194600F0BBFE5246049B00F0B7FE8A4687
:1055700000904FF0C0422E4B4046314600F0AEFE48
:105580002C4A2B4B00E027E0CDE90601514600985C
:1055900000F0A4FE82460191274A284B404631463E
:1055A00000F09CFE5246019B01F0BEF882460B467D
:1055B00002460591DDE9060100F0B8FBDDE90623AE
:1055C00000268846304601F0AFF85246059B00F0B1
:1055D000B9FF024600F07EB90020B1F5801F07DA5E
:1055E00035223046614601F0E4FB06466FF0340098
:1055F00000EB215024E00000FFFF1F00FFFF0F0021
:105600000000F03F0000F07F0000404301FCFFFF7E
:10561000A21B00000000F0FF0000F0BF0000E0410E
:105620000000F043FFFFEF3F5555D53F0000E03F3E
:105630004715F73FFE822B6544DF5DF80BAE543E05
:10564000A0F2FF300190C1F3130040F07F6141F000
:1056500040510291FE498842D8BF002004DDFD4937
:105660008142C8BF012001DD0D9008E000200D90AF
:105670000198401C01900298A0F5801002900299B8
:10568000F54878440B910D9900EBC100D0E9002357
:105690000F9330460A920B9901F046F8CDE90601C6
:1056A000DDE90A2130460F9B00F040FB02460B4625
:1056B0000020EA4900F0F6FB059102460B460090F7
:1056C000DDE9060100F00AFE1490E5488A464FF035
:1056D000000878440299006812904FF0005040EAA8
:1056E00061010D980F9B01EB804000F500210991AD
:1056F0000A9A129801F018F832460B9B00F022FF2C
:105700004246534600F0EAFD0646029140465146A5
:10571000099B129A00F0E2FDDDE9062300F012FF7A
:105720003246029B01F000F8059B009A00F0D6FD7E
:105730000091149A049053461046194600F0CEFD8D
:1057400006460246C7480B46029106217844FFF7F9
:10575000FFFBCDE90510029B32461046194600F0CA
:10576000BDFDDDE9053200F0B9FD05910646534661
:1057700040461946149A00F0D9FA009B049A00F0AA
:10578000ADFD3246059B00F0D1FACDE90510424649
:1057900053461046194600F0A1FD0022B24B02917B
:1057A0000A9000F0C3FADDE9053200F0BFFA0E46B8
:1057B0004246AD4B404600F0B7FF029B0A9A00F00C
:1057C000B3FFDDE9053200F0BDFE424602910A90CA
:1057D00033461046514600F081FDCDE9060153469F
:1057E000149A02990A9800F079FD8A46029033468D
:1057F00042460099049800F071FD5346029A00F069
:1058000095FA82460B4602460591DDE9060100F055
:105810008DFADDE9062300208846064600F084FF65
:105820005246059B00F08EFE824609914FF0604281
:105830008E4B3046414600F051FD049006918C4A53
:105840008A4B5046099900F049FD82460291894AE7
:10585000894B3046414600F041FD5246029B00F024
:1058600065FA864B7B440D9A03EBC203D3E9002310
:1058700000F05CFA0E900791019800F0C8FC0591C9
:10588000DDE9061382460E9A049800F04FFA7C4A2E
:105890007A440D9B02EBC303D3E9002300930292E9
:1058A00000F044FA5246059B00F040FA0026884674
:1058B00052463046059B00F037FF009B029A00F0ED
:1058C00033FF069B049A00F02FFF079B0E9A00F00F
:1058D00039FE024600200B4602903846294600F069
:1058E000FDFC824601912B4638461946029A00F08B
:1058F0001BFF3246434600F0F1FC5246019B00F08C
:1059000015FA07468A46324643462946029800F071
:10591000E5FC05460E463A46534600F007FA594A5A
:105920008846914221DBA8EB020353EA000210D122
:105930002A46334600F0F8FECDE90401524A534BA3
:105940003846514600F0F2F9DDE9042300F0C4FDC9
:1059500021D20220FEF728F9FFF7D9FB0A4621469B
:1059600018B062F31E01BDE8F08D494B28F00042EB
:105970009A4210D3474A08EB020353EA00027FF42D
:10598000C6AD2A46334600F0CFFE3A46534600F0F5
:10599000A3FD7FF6BCAD0022019228F000403E49F5
:1059A0003E4A01EB2051824223DA481C4FF4801119
:1059B00021FA00F040443A4AC0F30A517A44394B84
:1059C000A1F2FF31CB4020EA0303C0F3130040F4FF
:1059D0008010C1F11401C84012680190B8F1000FA5
:1059E000BCBF404201902846314600F09DFE05466E
:1059F0000E462A4633463846514600F097F94FF096
:105A000000084246284B4046059100F067FCCDE96E
:105A10000601264A264B4046059900F05FFC00919E
:105A200002902A4633464046059900F07DFE3A46EC
:105A3000534600F087FD1F4A1F4B00F04FFC009BB0
:105A4000029A00F073F90746884602460B4635E095
:105A50008E9803007AB60B00BA1700000000F03FE2
:105A600022180000201700000000084009C7EE3F80
:105A7000FD033ADCF5015B14E02F3EBEF815000093
:105A8000BC15000000009040FE822B654715973C36
:105A900000CC904000346F3F01FCFFFF0000E03F6E
:105AA00038150000FFFF0F00432EE63F396CA80CAD
:105AB000615C20BEEF39FAFE422EE63FDDE90601C9
:105AC00000F034F9DDE9062305460E4600F02CFE11
:105AD0003A46434600F036FD0F462A4633460090CC
